{
  "address": "0x8eed58aBE734Ea4EE35aCbfE9210171263df24C9",
  "abi": [
    {
      "inputs": [],
      "stateMutability": "nonpayable",
      "type": "constructor"
    },
    {
      "inputs": [
        {
          "internalType": "address",
          "name": "sender",
          "type": "address"
        },
        {
          "internalType": "uint256",
          "name": "balance",
          "type": "uint256"
        },
        {
          "internalType": "uint256",
          "name": "needed",
          "type": "uint256"
        },
        {
          "internalType": "uint256",
          "name": "tokenId",
          "type": "uint256"
        }
      ],
      "name": "ERC1155InsufficientBalance",
      "type": "error"
    },
    {
      "inputs": [
        {
          "internalType": "address",
          "name": "approver",
          "type": "address"
        }
      ],
      "name": "ERC1155InvalidApprover",
      "type": "error"
    },
    {
      "inputs": [
        {
          "internalType": "uint256",
          "name": "idsLength",
          "type": "uint256"
        },
        {
          "internalType": "uint256",
          "name": "valuesLength",
          "type": "uint256"
        }
      ],
      "name": "ERC1155InvalidArrayLength",
      "type": "error"
    },
    {
      "inputs": [
        {
          "internalType": "address",
          "name": "operator",
          "type": "address"
        }
      ],
      "name": "ERC1155InvalidOperator",
      "type": "error"
    },
    {
      "inputs": [
        {
          "internalType": "address",
          "name": "receiver",
          "type": "address"
        }
      ],
      "name": "ERC1155InvalidReceiver",
      "type": "error"
    },
    {
      "inputs": [
        {
          "internalType": "address",
          "name": "sender",
          "type": "address"
        }
      ],
      "name": "ERC1155InvalidSender",
      "type": "error"
    },
    {
      "inputs": [
        {
          "internalType": "address",
          "name": "operator",
          "type": "address"
        },
        {
          "internalType": "address",
          "name": "owner",
          "type": "address"
        }
      ],
      "name": "ERC1155MissingApprovalForAll",
      "type": "error"
    },
    {
      "anonymous": false,
      "inputs": [
        {
          "indexed": true,
          "internalType": "address",
          "name": "account",
          "type": "address"
        },
        {
          "indexed": true,
          "internalType": "address",
          "name": "operator",
          "type": "address"
        },
        {
          "indexed": false,
          "internalType": "bool",
          "name": "approved",
          "type": "bool"
        }
      ],
      "name": "ApprovalForAll",
      "type": "event"
    },
    {
      "anonymous": false,
      "inputs": [
        {
          "indexed": true,
          "internalType": "address",
          "name": "operator",
          "type": "address"
        },
        {
          "indexed": true,
          "internalType": "address",
          "name": "from",
          "type": "address"
        },
        {
          "indexed": true,
          "internalType": "address",
          "name": "to",
          "type": "address"
        },
        {
          "indexed": false,
          "internalType": "uint256[]",
          "name": "ids",
          "type": "uint256[]"
        },
        {
          "indexed": false,
          "internalType": "uint256[]",
          "name": "values",
          "type": "uint256[]"
        }
      ],
      "name": "TransferBatch",
      "type": "event"
    },
    {
      "anonymous": false,
      "inputs": [
        {
          "indexed": true,
          "internalType": "address",
          "name": "operator",
          "type": "address"
        },
        {
          "indexed": true,
          "internalType": "address",
          "name": "from",
          "type": "address"
        },
        {
          "indexed": true,
          "internalType": "address",
          "name": "to",
          "type": "address"
        },
        {
          "indexed": false,
          "internalType": "uint256",
          "name": "id",
          "type": "uint256"
        },
        {
          "indexed": false,
          "internalType": "uint256",
          "name": "value",
          "type": "uint256"
        }
      ],
      "name": "TransferSingle",
      "type": "event"
    },
    {
      "anonymous": false,
      "inputs": [
        {
          "indexed": false,
          "internalType": "string",
          "name": "value",
          "type": "string"
        },
        {
          "indexed": true,
          "internalType": "uint256",
          "name": "id",
          "type": "uint256"
        }
      ],
      "name": "URI",
      "type": "event"
    },
    {
      "inputs": [],
      "name": "GOLD",
      "outputs": [
        {
          "internalType": "uint256",
          "name": "",
          "type": "uint256"
        }
      ],
      "stateMutability": "view",
      "type": "function"
    },
    {
      "inputs": [],
      "name": "SHIELD",
      "outputs": [
        {
          "internalType": "uint256",
          "name": "",
          "type": "uint256"
        }
      ],
      "stateMutability": "view",
      "type": "function"
    },
    {
      "inputs": [],
      "name": "SILVER",
      "outputs": [
        {
          "internalType": "uint256",
          "name": "",
          "type": "uint256"
        }
      ],
      "stateMutability": "view",
      "type": "function"
    },
    {
      "inputs": [],
      "name": "SWORD",
      "outputs": [
        {
          "internalType": "uint256",
          "name": "",
          "type": "uint256"
        }
      ],
      "stateMutability": "view",
      "type": "function"
    },
    {
      "inputs": [],
      "name": "THORS_HAMMER",
      "outputs": [
        {
          "internalType": "uint256",
          "name": "",
          "type": "uint256"
        }
      ],
      "stateMutability": "view",
      "type": "function"
    },
    {
      "inputs": [
        {
          "internalType": "address",
          "name": "account",
          "type": "address"
        },
        {
          "internalType": "uint256",
          "name": "id",
          "type": "uint256"
        }
      ],
      "name": "balanceOf",
      "outputs": [
        {
          "internalType": "uint256",
          "name": "",
          "type": "uint256"
        }
      ],
      "stateMutability": "view",
      "type": "function"
    },
    {
      "inputs": [
        {
          "internalType": "address[]",
          "name": "accounts",
          "type": "address[]"
        },
        {
          "internalType": "uint256[]",
          "name": "ids",
          "type": "uint256[]"
        }
      ],
      "name": "balanceOfBatch",
      "outputs": [
        {
          "internalType": "uint256[]",
          "name": "",
          "type": "uint256[]"
        }
      ],
      "stateMutability": "view",
      "type": "function"
    },
    {
      "inputs": [
        {
          "internalType": "address",
          "name": "account",
          "type": "address"
        },
        {
          "internalType": "address",
          "name": "operator",
          "type": "address"
        }
      ],
      "name": "isApprovedForAll",
      "outputs": [
        {
          "internalType": "bool",
          "name": "",
          "type": "bool"
        }
      ],
      "stateMutability": "view",
      "type": "function"
    },
    {
      "inputs": [
        {
          "internalType": "address",
          "name": "from",
          "type": "address"
        },
        {
          "internalType": "address",
          "name": "to",
          "type": "address"
        },
        {
          "internalType": "uint256[]",
          "name": "ids",
          "type": "uint256[]"
        },
        {
          "internalType": "uint256[]",
          "name": "values",
          "type": "uint256[]"
        },
        {
          "internalType": "bytes",
          "name": "data",
          "type": "bytes"
        }
      ],
      "name": "safeBatchTransferFrom",
      "outputs": [],
      "stateMutability": "nonpayable",
      "type": "function"
    },
    {
      "inputs": [
        {
          "internalType": "address",
          "name": "from",
          "type": "address"
        },
        {
          "internalType": "address",
          "name": "to",
          "type": "address"
        },
        {
          "internalType": "uint256",
          "name": "id",
          "type": "uint256"
        },
        {
          "internalType": "uint256",
          "name": "value",
          "type": "uint256"
        },
        {
          "internalType": "bytes",
          "name": "data",
          "type": "bytes"
        }
      ],
      "name": "safeTransferFrom",
      "outputs": [],
      "stateMutability": "nonpayable",
      "type": "function"
    },
    {
      "inputs": [
        {
          "internalType": "address",
          "name": "operator",
          "type": "address"
        },
        {
          "internalType": "bool",
          "name": "approved",
          "type": "bool"
        }
      ],
      "name": "setApprovalForAll",
      "outputs": [],
      "stateMutability": "nonpayable",
      "type": "function"
    },
    {
      "inputs": [
        {
          "internalType": "bytes4",
          "name": "interfaceId",
          "type": "bytes4"
        }
      ],
      "name": "supportsInterface",
      "outputs": [
        {
          "internalType": "bool",
          "name": "",
          "type": "bool"
        }
      ],
      "stateMutability": "view",
      "type": "function"
    },
    {
      "inputs": [
        {
          "internalType": "uint256",
          "name": "",
          "type": "uint256"
        }
      ],
      "name": "uri",
      "outputs": [
        {
          "internalType": "string",
          "name": "",
          "type": "string"
        }
      ],
      "stateMutability": "view",
      "type": "function"
    }
  ],
  "transactionHash": "0x7250588229d622e38a9df12adfb983673e76a850ca68e95d644369cc85541ced",
  "args": [],
  "numDeployments": 2,
  "solcInputHash": "c2b56897a2460d0d4a43f06444f1742c",
  "bytecode": "0x60806040523480156200001157600080fd5b50604051806060016040528060278152602001620032b0602791396200003d816200011560201b60201c565b506200006a336000670de0b6b3a7640000604051806020016040528060008152506200012a60201b60201c565b6200009a3360016b033b2e3c9fd0803ce8000000604051806020016040528060008152506200012a60201b60201c565b620000bf3360026001604051806020016040528060008152506200012a60201b60201c565b620000e7336003633b9aca00604051806020016040528060008152506200012a60201b60201c565b6200010f336004633b9aca00604051806020016040528060008152506200012a60201b60201c565b62001265565b806002908162000126919062000ccd565b5050565b600073ffffffffffffffffffffffffffffffffffffffff168473ffffffffffffffffffffffffffffffffffffffff16036200019f5760006040517f57f447ce00000000000000000000000000000000000000000000000000000000815260040162000196919062000df9565b60405180910390fd5b600080620001b48585620001d660201b60201c565b91509150620001ce6000878484876200020660201b60201c565b505050505050565b60608060405191506001825283602083015260408201905060018152826020820152604081016040529250929050565b6200021a85858585620002df60201b60201c565b600073ffffffffffffffffffffffffffffffffffffffff168473ffffffffffffffffffffffffffffffffffffffff1614620002d857600062000261620006b160201b60201c565b90506001845103620002bf57600062000285600086620006b960201b90919060201c565b905060006200029f600086620006b960201b90919060201c565b9050620002b7838989858589620006cd60201b60201c565b5050620002d6565b620002d58187878787876200089060201b60201c565b5b505b5050505050565b80518251146200032c57815181516040517f5b0599910000000000000000000000000000000000000000000000000000000081526004016200032392919062000e27565b60405180910390fd5b60006200033e620006b160201b60201c565b905060005b835181101562000562576000620003648286620006b960201b90919060201c565b905060006200037d8386620006b960201b90919060201c565b9050600073ffffffffffffffffffffffffffffffffffffffff168873ffffffffffffffffffffffffffffffffffffffff1614620004ae57600080600084815260200190815260200160002060008a73ffffffffffffffffffffffffffffffffffffffff1673ffffffffffffffffffffffffffffffffffffffff168152602001908152602001600020549050818110156200045657888183856040517f03dee4c50000000000000000000000000000000000000000000000000000000081526004016200044d949392919062000e54565b60405180910390fd5b81810360008085815260200190815260200160002060008b73ffffffffffffffffffffffffffffffffffffffff1673ffffffffffffffffffffffffffffffffffffffff16815260200190815260200160002081905550505b600073ffffffffffffffffffffffffffffffffffffffff168773ffffffffffffffffffffffffffffffffffffffff16146200054c578060008084815260200190815260200160002060008973ffffffffffffffffffffffffffffffffffffffff1673ffffffffffffffffffffffffffffffffffffffff168152602001908152602001600020600082825462000544919062000ed0565b925050819055505b5050806200055a9062000f0b565b905062000343565b5060018351036200062957600062000585600085620006b960201b90919060201c565b905060006200059f600085620006b960201b90919060201c565b90508573ffffffffffffffffffffffffffffffffffffffff168773ffffffffffffffffffffffffffffffffffffffff168473ffffffffffffffffffffffffffffffffffffffff167fc3d58168c5ae7397731d063d5bbf3d657854427343f4c083240f7aacaa2d0f6285856040516200061992919062000e27565b60405180910390a45050620006aa565b8373ffffffffffffffffffffffffffffffffffffffff168573ffffffffffffffffffffffffffffffffffffffff168273ffffffffffffffffffffffffffffffffffffffff167f4a39dc06d4c0dbc64b70af90fd698a233a518aa5d07e595d983b8c0526c8f7fb8686604051620006a192919062001026565b60405180910390a45b5050505050565b600033905090565b600060208202602084010151905092915050565b60008473ffffffffffffffffffffffffffffffffffffffff163b111562000888578373ffffffffffffffffffffffffffffffffffffffff1663f23a6e6187878686866040518663ffffffff1660e01b815260040162000731959493929190620010fb565b6020604051808303816000875af19250505080156200077057506040513d601f19601f820116820180604052508101906200076d9190620011c1565b60015b620007fa573d8060008114620007a3576040519150601f19603f3d011682016040523d82523d6000602084013e620007a8565b606091505b506000815103620007f257846040517f57f447ce000000000000000000000000000000000000000000000000000000008152600401620007e9919062000df9565b60405180910390fd5b805181602001fd5b63f23a6e6160e01b7bffffffffffffffffffffffffffffffffffffffffffffffffffffffff1916817bffffffffffffffffffffffffffffffffffffffffffffffffffffffff1916146200088657846040517f57f447ce0000000000000000000000000000000000000000000000000000000081526004016200087d919062000df9565b60405180910390fd5b505b505050505050565b60008473ffffffffffffffffffffffffffffffffffffffff163b111562000a4b578373ffffffffffffffffffffffffffffffffffffffff1663bc197c8187878686866040518663ffffffff1660e01b8152600401620008f4959493929190620011f3565b6020604051808303816000875af19250505080156200093357506040513d601f19601f82011682018060405250810190620009309190620011c1565b60015b620009bd573d806000811462000966576040519150601f19603f3d011682016040523d82523d6000602084013e6200096b565b606091505b506000815103620009b557846040517f57f447ce000000000000000000000000000000000000000000000000000000008152600401620009ac919062000df9565b60405180910390fd5b805181602001fd5b63bc197c8160e01b7bffffffffffffffffffffffffffffffffffffffffffffffffffffffff1916817bffffffffffffffffffffffffffffffffffffffffffffffffffffffff19161462000a4957846040517f57f447ce00000000000000000000000000000000000000000000000000000000815260040162000a40919062000df9565b60405180910390fd5b505b505050505050565b600081519050919050565b7f4e487b7100000000000000000000000000000000000000000000000000000000600052604160045260246000fd5b7f4e487b7100000000000000000000000000000000000000000000000000000000600052602260045260246000fd5b6000600282049050600182168062000ad557607f821691505b60208210810362000aeb5762000aea62000a8d565b5b50919050565b60008190508160005260206000209050919050565b60006020601f8301049050919050565b600082821b905092915050565b60006008830262000b557fffffffffffffffffffffffffffffffffffffffffffffffffffffffffffffffff8262000b16565b62000b61868362000b16565b95508019841693508086168417925050509392505050565b6000819050919050565b6000819050919050565b600062000bae62000ba862000ba28462000b79565b62000b83565b62000b79565b9050919050565b6000819050919050565b62000bca8362000b8d565b62000be262000bd98262000bb5565b84845462000b23565b825550505050565b600090565b62000bf962000bea565b62000c0681848462000bbf565b505050565b5b8181101562000c2e5762000c2260008262000bef565b60018101905062000c0c565b5050565b601f82111562000c7d5762000c478162000af1565b62000c528462000b06565b8101602085101562000c62578190505b62000c7a62000c718562000b06565b83018262000c0b565b50505b505050565b600082821c905092915050565b600062000ca26000198460080262000c82565b1980831691505092915050565b600062000cbd838362000c8f565b9150826002028217905092915050565b62000cd88262000a53565b67ffffffffffffffff81111562000cf45762000cf362000a5e565b5b62000d00825462000abc565b62000d0d82828562000c32565b600060209050601f83116001811462000d45576000841562000d30578287015190505b62000d3c858262000caf565b86555062000dac565b601f19841662000d558662000af1565b60005b8281101562000d7f5784890151825560018201915060208501945060208101905062000d58565b8683101562000d9f578489015162000d9b601f89168262000c8f565b8355505b6001600288020188555050505b505050505050565b600073ffffffffffffffffffffffffffffffffffffffff82169050919050565b600062000de18262000db4565b9050919050565b62000df38162000dd4565b82525050565b600060208201905062000e10600083018462000de8565b92915050565b62000e218162000b79565b82525050565b600060408201905062000e3e600083018562000e16565b62000e4d602083018462000e16565b9392505050565b600060808201905062000e6b600083018762000de8565b62000e7a602083018662000e16565b62000e89604083018562000e16565b62000e98606083018462000e16565b95945050505050565b7f4e487b7100000000000000000000000000000000000000000000000000000000600052601160045260246000fd5b600062000edd8262000b79565b915062000eea8362000b79565b925082820190508082111562000f055762000f0462000ea1565b5b92915050565b600062000f188262000b79565b91507fffffffffffffffffffffffffffffffffffffffffffffffffffffffffffffffff820362000f4d5762000f4c62000ea1565b5b600182019050919050565b600081519050919050565b600082825260208201905092915050565b6000819050602082019050919050565b62000f8f8162000b79565b82525050565b600062000fa3838362000f84565b60208301905092915050565b6000602082019050919050565b600062000fc98262000f58565b62000fd5818562000f63565b935062000fe28362000f74565b8060005b838110156200101957815162000ffd888262000f95565b97506200100a8362000faf565b92505060018101905062000fe6565b5085935050505092915050565b6000604082019050818103600083015262001042818562000fbc565b9050818103602083015262001058818462000fbc565b90509392505050565b600081519050919050565b600082825260208201905092915050565b60005b838110156200109d57808201518184015260208101905062001080565b60008484015250505050565b6000601f19601f8301169050919050565b6000620010c78262001061565b620010d381856200106c565b9350620010e58185602086016200107d565b620010f081620010a9565b840191505092915050565b600060a08201905062001112600083018862000de8565b62001121602083018762000de8565b62001130604083018662000e16565b6200113f606083018562000e16565b8181036080830152620011538184620010ba565b90509695505050505050565b600080fd5b60007fffffffff0000000000000000000000000000000000000000000000000000000082169050919050565b6200119b8162001164565b8114620011a757600080fd5b50565b600081519050620011bb8162001190565b92915050565b600060208284031215620011da57620011d96200115f565b5b6000620011ea84828501620011aa565b91505092915050565b600060a0820190506200120a600083018862000de8565b62001219602083018762000de8565b81810360408301526200122d818662000fbc565b9050818103606083015262001243818562000fbc565b90508181036080830152620012598184620010ba565b90509695505050505050565b61203b80620012756000396000f3fe608060405234801561001057600080fd5b50600436106100ce5760003560e01c80634e1273f41161008c578063d562e20411610066578063d562e20414610225578063e3e55f0814610243578063e985e9c514610261578063f242432a14610291576100ce565b80634e1273f4146101bb5780635b2725ed146101eb578063a22cb46514610209576100ce565b8062fdd58e146100d357806301ffc9a7146101035780630e89341c1461013357806313dc989f146101635780632eb2c2d6146101815780633e4bee381461019d575b600080fd5b6100ed60048036038101906100e8919061144c565b6102ad565b6040516100fa919061149b565b60405180910390f35b61011d6004803603810190610118919061150e565b610307565b60405161012a9190611556565b60405180910390f35b61014d60048036038101906101489190611571565b6103e9565b60405161015a919061162e565b60405180910390f35b61016b61047d565b604051610178919061149b565b60405180910390f35b61019b6004803603810190610196919061184d565b610482565b005b6101a561052a565b6040516101b2919061149b565b60405180910390f35b6101d560048036038101906101d091906119df565b61052f565b6040516101e29190611b15565b60405180910390f35b6101f361063e565b604051610200919061149b565b60405180910390f35b610223600480360381019061021e9190611b63565b610643565b005b61022d610659565b60405161023a919061149b565b60405180910390f35b61024b61065e565b604051610258919061149b565b60405180910390f35b61027b60048036038101906102769190611ba3565b610663565b6040516102889190611556565b60405180910390f35b6102ab60048036038101906102a69190611be3565b6106f7565b005b600080600083815260200190815260200160002060008473ffffffffffffffffffffffffffffffffffffffff1673ffffffffffffffffffffffffffffffffffffffff16815260200190815260200160002054905092915050565b60007fd9b67a26000000000000000000000000000000000000000000000000000000007bffffffffffffffffffffffffffffffffffffffffffffffffffffffff1916827bffffffffffffffffffffffffffffffffffffffffffffffffffffffff191614806103d257507f0e89341c000000000000000000000000000000000000000000000000000000007bffffffffffffffffffffffffffffffffffffffffffffffffffffffff1916827bffffffffffffffffffffffffffffffffffffffffffffffffffffffff1916145b806103e257506103e18261079f565b5b9050919050565b6060600280546103f890611ca9565b80601f016020809104026020016040519081016040528092919081815260200182805461042490611ca9565b80156104715780601f1061044657610100808354040283529160200191610471565b820191906000526020600020905b81548152906001019060200180831161045457829003601f168201915b50505050509050919050565b600381565b600061048c610809565b90508073ffffffffffffffffffffffffffffffffffffffff168673ffffffffffffffffffffffffffffffffffffffff16141580156104d157506104cf8682610663565b155b156105155780866040517fe237d92200000000000000000000000000000000000000000000000000000000815260040161050c929190611ce9565b60405180910390fd5b6105228686868686610811565b505050505050565b600081565b6060815183511461057b57815183516040517f5b059991000000000000000000000000000000000000000000000000000000008152600401610572929190611d12565b60405180910390fd5b6000835167ffffffffffffffff81111561059857610597611655565b5b6040519080825280602002602001820160405280156105c65781602001602082028036833780820191505090505b50905060005b8451811015610633576106036105eb828761090990919063ffffffff16565b6105fe838761091d90919063ffffffff16565b6102ad565b82828151811061061657610615611d3b565b5b6020026020010181815250508061062c90611d99565b90506105cc565b508091505092915050565b600481565b61065561064e610809565b8383610931565b5050565b600281565b600181565b6000600160008473ffffffffffffffffffffffffffffffffffffffff1673ffffffffffffffffffffffffffffffffffffffff16815260200190815260200160002060008373ffffffffffffffffffffffffffffffffffffffff1673ffffffffffffffffffffffffffffffffffffffff16815260200190815260200160002060009054906101000a900460ff16905092915050565b6000610701610809565b90508073ffffffffffffffffffffffffffffffffffffffff168673ffffffffffffffffffffffffffffffffffffffff161415801561074657506107448682610663565b155b1561078a5780866040517fe237d922000000000000000000000000000000000000000000000000000000008152600401610781929190611ce9565b60405180910390fd5b6107978686868686610aa1565b505050505050565b60007f01ffc9a7000000000000000000000000000000000000000000000000000000007bffffffffffffffffffffffffffffffffffffffffffffffffffffffff1916827bffffffffffffffffffffffffffffffffffffffffffffffffffffffff1916149050919050565b600033905090565b600073ffffffffffffffffffffffffffffffffffffffff168473ffffffffffffffffffffffffffffffffffffffff16036108835760006040517f57f447ce00000000000000000000000000000000000000000000000000000000815260040161087a9190611de1565b60405180910390fd5b600073ffffffffffffffffffffffffffffffffffffffff168573ffffffffffffffffffffffffffffffffffffffff16036108f55760006040517f01a835140000000000000000000000000000000000000000000000000000000081526004016108ec9190611de1565b60405180910390fd5b6109028585858585610bac565b5050505050565b600060208202602084010151905092915050565b600060208202602084010151905092915050565b600073ffffffffffffffffffffffffffffffffffffffff168273ffffffffffffffffffffffffffffffffffffffff16036109a35760006040517fced3e10000000000000000000000000000000000000000000000000000000000815260040161099a9190611de1565b60405180910390fd5b80600160008573ffffffffffffffffffffffffffffffffffffffff1673ffffffffffffffffffffffffffffffffffffffff16815260200190815260200160002060008473ffffffffffffffffffffffffffffffffffffffff1673ffffffffffffffffffffffffffffffffffffffff16815260200190815260200160002060006101000a81548160ff0219169083151502179055508173ffffffffffffffffffffffffffffffffffffffff168373ffffffffffffffffffffffffffffffffffffffff167f17307eab39ab6107e8899845ad3d59bd9653f200f220920489ca2b5937696c3183604051610a949190611556565b60405180910390a3505050565b600073ffffffffffffffffffffffffffffffffffffffff168473ffffffffffffffffffffffffffffffffffffffff1603610b135760006040517f57f447ce000000000000000000000000000000000000000000000000000000008152600401610b0a9190611de1565b60405180910390fd5b600073ffffffffffffffffffffffffffffffffffffffff168573ffffffffffffffffffffffffffffffffffffffff1603610b855760006040517f01a83514000000000000000000000000000000000000000000000000000000008152600401610b7c9190611de1565b60405180910390fd5b600080610b928585610c5e565b91509150610ba38787848487610bac565b50505050505050565b610bb885858585610c8e565b600073ffffffffffffffffffffffffffffffffffffffff168473ffffffffffffffffffffffffffffffffffffffff1614610c57576000610bf6610809565b90506001845103610c46576000610c1760008661091d90919063ffffffff16565b90506000610c2f60008661091d90919063ffffffff16565b9050610c3f83898985858961103c565b5050610c55565b610c548187878787876111f0565b5b505b5050505050565b60608060405191506001825283602083015260408201905060018152826020820152604081016040529250929050565b8051825114610cd857815181516040517f5b059991000000000000000000000000000000000000000000000000000000008152600401610ccf929190611d12565b60405180910390fd5b6000610ce2610809565b905060005b8351811015610ef7576000610d05828661091d90919063ffffffff16565b90506000610d1c838661091d90919063ffffffff16565b9050600073ffffffffffffffffffffffffffffffffffffffff168873ffffffffffffffffffffffffffffffffffffffff1614610e4957600080600084815260200190815260200160002060008a73ffffffffffffffffffffffffffffffffffffffff1673ffffffffffffffffffffffffffffffffffffffff16815260200190815260200160002054905081811015610df157888183856040517f03dee4c5000000000000000000000000000000000000000000000000000000008152600401610de89493929190611dfc565b60405180910390fd5b81810360008085815260200190815260200160002060008b73ffffffffffffffffffffffffffffffffffffffff1673ffffffffffffffffffffffffffffffffffffffff16815260200190815260200160002081905550505b600073ffffffffffffffffffffffffffffffffffffffff168773ffffffffffffffffffffffffffffffffffffffff1614610ee4578060008084815260200190815260200160002060008973ffffffffffffffffffffffffffffffffffffffff1673ffffffffffffffffffffffffffffffffffffffff1681526020019081526020016000206000828254610edc9190611e41565b925050819055505b505080610ef090611d99565b9050610ce7565b506001835103610fb6576000610f1760008561091d90919063ffffffff16565b90506000610f2f60008561091d90919063ffffffff16565b90508573ffffffffffffffffffffffffffffffffffffffff168773ffffffffffffffffffffffffffffffffffffffff168473ffffffffffffffffffffffffffffffffffffffff167fc3d58168c5ae7397731d063d5bbf3d657854427343f4c083240f7aacaa2d0f628585604051610fa7929190611d12565b60405180910390a45050611035565b8373ffffffffffffffffffffffffffffffffffffffff168573ffffffffffffffffffffffffffffffffffffffff168273ffffffffffffffffffffffffffffffffffffffff167f4a39dc06d4c0dbc64b70af90fd698a233a518aa5d07e595d983b8c0526c8f7fb868660405161102c929190611e75565b60405180910390a45b5050505050565b60008473ffffffffffffffffffffffffffffffffffffffff163b11156111e8578373ffffffffffffffffffffffffffffffffffffffff1663f23a6e6187878686866040518663ffffffff1660e01b815260040161109d959493929190611f01565b6020604051808303816000875af19250505080156110d957506040513d601f19601f820116820180604052508101906110d69190611f70565b60015b61115d573d8060008114611109576040519150601f19603f3d011682016040523d82523d6000602084013e61110e565b606091505b50600081510361115557846040517f57f447ce00000000000000000000000000000000000000000000000000000000815260040161114c9190611de1565b60405180910390fd5b805181602001fd5b63f23a6e6160e01b7bffffffffffffffffffffffffffffffffffffffffffffffffffffffff1916817bffffffffffffffffffffffffffffffffffffffffffffffffffffffff1916146111e657846040517f57f447ce0000000000000000000000000000000000000000000000000000000081526004016111dd9190611de1565b60405180910390fd5b505b505050505050565b60008473ffffffffffffffffffffffffffffffffffffffff163b111561139c578373ffffffffffffffffffffffffffffffffffffffff1663bc197c8187878686866040518663ffffffff1660e01b8152600401611251959493929190611f9d565b6020604051808303816000875af192505050801561128d57506040513d601f19601f8201168201806040525081019061128a9190611f70565b60015b611311573d80600081146112bd576040519150601f19603f3d011682016040523d82523d6000602084013e6112c2565b606091505b50600081510361130957846040517f57f447ce0000000000000000000000000000000000000000000000000000000081526004016113009190611de1565b60405180910390fd5b805181602001fd5b63bc197c8160e01b7bffffffffffffffffffffffffffffffffffffffffffffffffffffffff1916817bffffffffffffffffffffffffffffffffffffffffffffffffffffffff19161461139a57846040517f57f447ce0000000000000000000000000000000000000000000000000000000081526004016113919190611de1565b60405180910390fd5b505b505050505050565b6000604051905090565b600080fd5b600080fd5b600073ffffffffffffffffffffffffffffffffffffffff82169050919050565b60006113e3826113b8565b9050919050565b6113f3816113d8565b81146113fe57600080fd5b50565b600081359050611410816113ea565b92915050565b6000819050919050565b61142981611416565b811461143457600080fd5b50565b60008135905061144681611420565b92915050565b60008060408385031215611463576114626113ae565b5b600061147185828601611401565b925050602061148285828601611437565b9150509250929050565b61149581611416565b82525050565b60006020820190506114b0600083018461148c565b92915050565b60007fffffffff0000000000000000000000000000000000000000000000000000000082169050919050565b6114eb816114b6565b81146114f657600080fd5b50565b600081359050611508816114e2565b92915050565b600060208284031215611524576115236113ae565b5b6000611532848285016114f9565b91505092915050565b60008115159050919050565b6115508161153b565b82525050565b600060208201905061156b6000830184611547565b92915050565b600060208284031215611587576115866113ae565b5b600061159584828501611437565b91505092915050565b600081519050919050565b600082825260208201905092915050565b60005b838110156115d85780820151818401526020810190506115bd565b60008484015250505050565b6000601f19601f8301169050919050565b60006116008261159e565b61160a81856115a9565b935061161a8185602086016115ba565b611623816115e4565b840191505092915050565b6000602082019050818103600083015261164881846115f5565b905092915050565b600080fd5b7f4e487b7100000000000000000000000000000000000000000000000000000000600052604160045260246000fd5b61168d826115e4565b810181811067ffffffffffffffff821117156116ac576116ab611655565b5b80604052505050565b60006116bf6113a4565b90506116cb8282611684565b919050565b600067ffffffffffffffff8211156116eb576116ea611655565b5b602082029050602081019050919050565b600080fd5b600061171461170f846116d0565b6116b5565b90508083825260208201905060208402830185811115611737576117366116fc565b5b835b81811015611760578061174c8882611437565b845260208401935050602081019050611739565b5050509392505050565b600082601f83011261177f5761177e611650565b5b813561178f848260208601611701565b91505092915050565b600080fd5b600067ffffffffffffffff8211156117b8576117b7611655565b5b6117c1826115e4565b9050602081019050919050565b82818337600083830152505050565b60006117f06117eb8461179d565b6116b5565b90508281526020810184848401111561180c5761180b611798565b5b6118178482856117ce565b509392505050565b600082601f83011261183457611833611650565b5b81356118448482602086016117dd565b91505092915050565b600080600080600060a08688031215611869576118686113ae565b5b600061187788828901611401565b955050602061188888828901611401565b945050604086013567ffffffffffffffff8111156118a9576118a86113b3565b5b6118b58882890161176a565b935050606086013567ffffffffffffffff8111156118d6576118d56113b3565b5b6118e28882890161176a565b925050608086013567ffffffffffffffff811115611903576119026113b3565b5b61190f8882890161181f565b9150509295509295909350565b600067ffffffffffffffff82111561193757611936611655565b5b602082029050602081019050919050565b600061195b6119568461191c565b6116b5565b9050808382526020820190506020840283018581111561197e5761197d6116fc565b5b835b818110156119a757806119938882611401565b845260208401935050602081019050611980565b5050509392505050565b600082601f8301126119c6576119c5611650565b5b81356119d6848260208601611948565b91505092915050565b600080604083850312156119f6576119f56113ae565b5b600083013567ffffffffffffffff811115611a1457611a136113b3565b5b611a20858286016119b1565b925050602083013567ffffffffffffffff811115611a4157611a406113b3565b5b611a4d8582860161176a565b9150509250929050565b600081519050919050565b600082825260208201905092915050565b6000819050602082019050919050565b611a8c81611416565b82525050565b6000611a9e8383611a83565b60208301905092915050565b6000602082019050919050565b6000611ac282611a57565b611acc8185611a62565b9350611ad783611a73565b8060005b83811015611b08578151611aef8882611a92565b9750611afa83611aaa565b925050600181019050611adb565b5085935050505092915050565b60006020820190508181036000830152611b2f8184611ab7565b905092915050565b611b408161153b565b8114611b4b57600080fd5b50565b600081359050611b5d81611b37565b92915050565b60008060408385031215611b7a57611b796113ae565b5b6000611b8885828601611401565b9250506020611b9985828601611b4e565b9150509250929050565b60008060408385031215611bba57611bb96113ae565b5b6000611bc885828601611401565b9250506020611bd985828601611401565b9150509250929050565b600080600080600060a08688031215611bff57611bfe6113ae565b5b6000611c0d88828901611401565b9550506020611c1e88828901611401565b9450506040611c2f88828901611437565b9350506060611c4088828901611437565b925050608086013567ffffffffffffffff811115611c6157611c606113b3565b5b611c6d8882890161181f565b9150509295509295909350565b7f4e487b7100000000000000000000000000000000000000000000000000000000600052602260045260246000fd5b60006002820490506001821680611cc157607f821691505b602082108103611cd457611cd3611c7a565b5b50919050565b611ce3816113d8565b82525050565b6000604082019050611cfe6000830185611cda565b611d0b6020830184611cda565b9392505050565b6000604082019050611d27600083018561148c565b611d34602083018461148c565b9392505050565b7f4e487b7100000000000000000000000000000000000000000000000000000000600052603260045260246000fd5b7f4e487b7100000000000000000000000000000000000000000000000000000000600052601160045260246000fd5b6000611da482611416565b91507fffffffffffffffffffffffffffffffffffffffffffffffffffffffffffffffff8203611dd657611dd5611d6a565b5b600182019050919050565b6000602082019050611df66000830184611cda565b92915050565b6000608082019050611e116000830187611cda565b611e1e602083018661148c565b611e2b604083018561148c565b611e38606083018461148c565b95945050505050565b6000611e4c82611416565b9150611e5783611416565b9250828201905080821115611e6f57611e6e611d6a565b5b92915050565b60006040820190508181036000830152611e8f8185611ab7565b90508181036020830152611ea38184611ab7565b90509392505050565b600081519050919050565b600082825260208201905092915050565b6000611ed382611eac565b611edd8185611eb7565b9350611eed8185602086016115ba565b611ef6816115e4565b840191505092915050565b600060a082019050611f166000830188611cda565b611f236020830187611cda565b611f30604083018661148c565b611f3d606083018561148c565b8181036080830152611f4f8184611ec8565b90509695505050505050565b600081519050611f6a816114e2565b92915050565b600060208284031215611f8657611f856113ae565b5b6000611f9484828501611f5b565b91505092915050565b600060a082019050611fb26000830188611cda565b611fbf6020830187611cda565b8181036040830152611fd18186611ab7565b90508181036060830152611fe58185611ab7565b90508181036080830152611ff98184611ec8565b9050969550505050505056fea2646970667358221220685abd9d40300b98b3e3c754e946b49782ed1825c4e8366f2cd49a37e3302fe964736f6c6343000814003368747470733a2f2f67616d652e6578616d706c652f6170692f6974656d2f7b69647d2e6a736f6e",
  "devdoc": {
    "errors": {
      "ERC1155InsufficientBalance(address,uint256,uint256,uint256)": [
        {
          "details": "Indicates an error related to the current `balance` of a `sender`. Used in transfers.",
          "params": {
            "balance": "Current balance for the interacting account.",
            "needed": "Minimum amount required to perform a transfer.",
            "sender": "Address whose tokens are being transferred.",
            "tokenId": "Identifier number of a token."
          }
        }
      ],
      "ERC1155InvalidApprover(address)": [
        {
          "details": "Indicates a failure with the `approver` of a token to be approved. Used in approvals.",
          "params": {
            "approver": "Address initiating an approval operation."
          }
        }
      ],
      "ERC1155InvalidArrayLength(uint256,uint256)": [
        {
          "details": "Indicates an array length mismatch between ids and values in a safeBatchTransferFrom operation. Used in batch transfers.",
          "params": {
            "idsLength": "Length of the array of token identifiers",
            "valuesLength": "Length of the array of token amounts"
          }
        }
      ],
      "ERC1155InvalidOperator(address)": [
        {
          "details": "Indicates a failure with the `operator` to be approved. Used in approvals.",
          "params": {
            "operator": "Address that may be allowed to operate on tokens without being their owner."
          }
        }
      ],
      "ERC1155InvalidReceiver(address)": [
        {
          "details": "Indicates a failure with the token `receiver`. Used in transfers.",
          "params": {
            "receiver": "Address to which tokens are being transferred."
          }
        }
      ],
      "ERC1155InvalidSender(address)": [
        {
          "details": "Indicates a failure with the token `sender`. Used in transfers.",
          "params": {
            "sender": "Address whose tokens are being transferred."
          }
        }
      ],
      "ERC1155MissingApprovalForAll(address,address)": [
        {
          "details": "Indicates a failure with the `operator`s approval. Used in transfers.",
          "params": {
            "operator": "Address that may be allowed to operate on tokens without being their owner.",
            "owner": "Address of the current owner of a token."
          }
        }
      ]
    },
    "events": {
      "ApprovalForAll(address,address,bool)": {
        "details": "Emitted when `account` grants or revokes permission to `operator` to transfer their tokens, according to `approved`."
      },
      "TransferBatch(address,address,address,uint256[],uint256[])": {
        "details": "Equivalent to multiple {TransferSingle} events, where `operator`, `from` and `to` are the same for all transfers."
      },
      "TransferSingle(address,address,address,uint256,uint256)": {
        "details": "Emitted when `value` amount of tokens of type `id` are transferred from `from` to `to` by `operator`."
      },
      "URI(string,uint256)": {
        "details": "Emitted when the URI for token type `id` changes to `value`, if it is a non-programmatic URI. If an {URI} event was emitted for `id`, the standard https://eips.ethereum.org/EIPS/eip-1155#metadata-extensions[guarantees] that `value` will equal the value returned by {IERC1155MetadataURI-uri}."
      }
    },
    "kind": "dev",
    "methods": {
      "balanceOf(address,uint256)": {
        "details": "See {IERC1155-balanceOf}."
      },
      "balanceOfBatch(address[],uint256[])": {
        "details": "See {IERC1155-balanceOfBatch}. Requirements: - `accounts` and `ids` must have the same length."
      },
      "isApprovedForAll(address,address)": {
        "details": "See {IERC1155-isApprovedForAll}."
      },
      "safeBatchTransferFrom(address,address,uint256[],uint256[],bytes)": {
        "details": "See {IERC1155-safeBatchTransferFrom}."
      },
      "safeTransferFrom(address,address,uint256,uint256,bytes)": {
        "details": "See {IERC1155-safeTransferFrom}."
      },
      "setApprovalForAll(address,bool)": {
        "details": "See {IERC1155-setApprovalForAll}."
      },
      "supportsInterface(bytes4)": {
        "details": "See {IERC165-supportsInterface}."
      },
      "uri(uint256)": {
        "details": "See {IERC1155MetadataURI-uri}. This implementation returns the same URI for *all* token types. It relies on the token type ID substitution mechanism https://eips.ethereum.org/EIPS/eip-1155#metadata[defined in the EIP]. Clients calling this function must replace the `\\{id\\}` substring with the actual token type ID."
      }
    },
    "version": 1
  },
  "userdoc": {
    "kind": "user",
    "methods": {},
    "version": 1
  },
  "storageLayout": {
    "storage": [
      {
        "astId": 178,
        "contract": "contracts/mock/GameItems.sol:GameItems",
        "label": "_balances",
        "offset": 0,
        "slot": "0",
        "type": "t_mapping(t_uint256,t_mapping(t_address,t_uint256))"
      },
      {
        "astId": 184,
        "contract": "contracts/mock/GameItems.sol:GameItems",
        "label": "_operatorApprovals",
        "offset": 0,
        "slot": "1",
        "type": "t_mapping(t_address,t_mapping(t_address,t_bool))"
      },
      {
        "astId": 186,
        "contract": "contracts/mock/GameItems.sol:GameItems",
        "label": "_uri",
        "offset": 0,
        "slot": "2",
        "type": "t_string_storage"
      }
    ],
    "types": {
      "t_address": {
        "encoding": "inplace",
        "label": "address",
        "numberOfBytes": "20"
      },
      "t_bool": {
        "encoding": "inplace",
        "label": "bool",
        "numberOfBytes": "1"
      },
      "t_mapping(t_address,t_bool)": {
        "encoding": "mapping",
        "key": "t_address",
        "label": "mapping(address => bool)",
        "numberOfBytes": "32",
        "value": "t_bool"
      },
      "t_mapping(t_address,t_mapping(t_address,t_bool))": {
        "encoding": "mapping",
        "key": "t_address",
        "label": "mapping(address => mapping(address => bool))",
        "numberOfBytes": "32",
        "value": "t_mapping(t_address,t_bool)"
      },
      "t_mapping(t_address,t_uint256)": {
        "encoding": "mapping",
        "key": "t_address",
        "label": "mapping(address => uint256)",
        "numberOfBytes": "32",
        "value": "t_uint256"
      },
      "t_mapping(t_uint256,t_mapping(t_address,t_uint256))": {
        "encoding": "mapping",
        "key": "t_uint256",
        "label": "mapping(uint256 => mapping(address => uint256))",
        "numberOfBytes": "32",
        "value": "t_mapping(t_address,t_uint256)"
      },
      "t_string_storage": {
        "encoding": "bytes",
        "label": "string",
        "numberOfBytes": "32"
      },
      "t_uint256": {
        "encoding": "inplace",
        "label": "uint256",
        "numberOfBytes": "32"
      }
    }
  }
}