{
  "address": "0x79acCCE375Dd19903961e887130407AC268b4A43",
  "abi": [
    {
      "inputs": [
        {
          "internalType": "address",
          "name": "_nftContract",
          "type": "address"
        }
      ],
      "stateMutability": "nonpayable",
      "type": "constructor"
    },
    {
      "inputs": [
        {
          "internalType": "address",
          "name": "account",
          "type": "address"
        }
      ],
      "name": "AddressInsufficientBalance",
      "type": "error"
    },
    {
      "inputs": [],
      "name": "FailedInnerCall",
      "type": "error"
    },
    {
      "anonymous": false,
      "inputs": [
        {
          "indexed": false,
          "internalType": "uint256",
          "name": "saleId",
          "type": "uint256"
        },
        {
          "indexed": true,
          "internalType": "address",
          "name": "buyer",
          "type": "address"
        },
        {
          "indexed": false,
          "internalType": "uint256",
          "name": "price",
          "type": "uint256"
        }
      ],
      "name": "SaleCompleted",
      "type": "event"
    },
    {
      "anonymous": false,
      "inputs": [
        {
          "indexed": false,
          "internalType": "uint256",
          "name": "saleId",
          "type": "uint256"
        },
        {
          "indexed": true,
          "internalType": "address",
          "name": "owner",
          "type": "address"
        },
        {
          "indexed": true,
          "internalType": "address",
          "name": "nftContract",
          "type": "address"
        },
        {
          "indexed": true,
          "internalType": "uint256",
          "name": "tokenId",
          "type": "uint256"
        },
        {
          "indexed": false,
          "internalType": "uint256",
          "name": "quantity",
          "type": "uint256"
        },
        {
          "indexed": false,
          "internalType": "uint256",
          "name": "price",
          "type": "uint256"
        },
        {
          "indexed": false,
          "internalType": "address",
          "name": "paymentToken",
          "type": "address"
        }
      ],
      "name": "SaleCreated",
      "type": "event"
    },
    {
      "anonymous": false,
      "inputs": [
        {
          "indexed": false,
          "internalType": "uint256",
          "name": "saleId",
          "type": "uint256"
        },
        {
          "indexed": true,
          "internalType": "address",
          "name": "owner",
          "type": "address"
        },
        {
          "indexed": false,
          "internalType": "uint256",
          "name": "price",
          "type": "uint256"
        }
      ],
      "name": "SaleUpdated",
      "type": "event"
    },
    {
      "inputs": [
        {
          "internalType": "uint256",
          "name": "_tokenId",
          "type": "uint256"
        }
      ],
      "name": "buy",
      "outputs": [],
      "stateMutability": "payable",
      "type": "function"
    },
    {
      "inputs": [
        {
          "internalType": "address",
          "name": "_nftContract",
          "type": "address"
        },
        {
          "internalType": "uint256",
          "name": "_tokenId",
          "type": "uint256"
        },
        {
          "internalType": "uint256",
          "name": "_quantity",
          "type": "uint256"
        },
        {
          "internalType": "uint256",
          "name": "_price",
          "type": "uint256"
        },
        {
          "internalType": "address",
          "name": "_paymentToken",
          "type": "address"
        }
      ],
      "name": "createOrUpdateSale",
      "outputs": [],
      "stateMutability": "nonpayable",
      "type": "function"
    },
    {
      "inputs": [],
      "name": "feePercentage",
      "outputs": [
        {
          "internalType": "uint256",
          "name": "",
          "type": "uint256"
        }
      ],
      "stateMutability": "view",
      "type": "function"
    },
    {
      "inputs": [],
      "name": "marketplaceOwner",
      "outputs": [
        {
          "internalType": "address",
          "name": "",
          "type": "address"
        }
      ],
      "stateMutability": "view",
      "type": "function"
    },
    {
      "inputs": [
        {
          "internalType": "uint256",
          "name": "",
          "type": "uint256"
        }
      ],
      "name": "sales",
      "outputs": [
        {
          "internalType": "address",
          "name": "owner",
          "type": "address"
        },
        {
          "internalType": "address",
          "name": "nftContract",
          "type": "address"
        },
        {
          "internalType": "uint256",
          "name": "tokenId",
          "type": "uint256"
        },
        {
          "internalType": "uint256",
          "name": "quantity",
          "type": "uint256"
        },
        {
          "internalType": "uint256",
          "name": "price",
          "type": "uint256"
        },
        {
          "internalType": "address",
          "name": "paymentToken",
          "type": "address"
        }
      ],
      "stateMutability": "view",
      "type": "function"
    }
  ],
  "transactionHash": "0xa32165f7a078f5ab21436beefad4d0bae4f0f6331eba6189721be3d9f38acda1",
  "args": [
    "0xC4Fb40dc049945EdB71832e2A6C8eb950De5425F"
  ],
  "numDeployments": 1,
  "solcInputHash": "80dbd599e3a194ddaa296dcbe73ac9c9",
  "bytecode": "0x608060405260376002553480156200001657600080fd5b5060405162001b2938038062001b2983398181016040528101906200003c919062000166565b33600160006101000a81548173ffffffffffffffffffffffffffffffffffffffff021916908373ffffffffffffffffffffffffffffffffffffffff16021790555060008190508073ffffffffffffffffffffffffffffffffffffffff1663a22cb4653060016040518363ffffffff1660e01b8152600401620000c0929190620001c6565b600060405180830381600087803b158015620000db57600080fd5b505af1158015620000f0573d6000803e3d6000fd5b505050505050620001f3565b600080fd5b600073ffffffffffffffffffffffffffffffffffffffff82169050919050565b60006200012e8262000101565b9050919050565b620001408162000121565b81146200014c57600080fd5b50565b600081519050620001608162000135565b92915050565b6000602082840312156200017f576200017e620000fc565b5b60006200018f848285016200014f565b91505092915050565b620001a38162000121565b82525050565b60008115159050919050565b620001c081620001a9565b82525050565b6000604082019050620001dd600083018562000198565b620001ec6020830184620001b5565b9392505050565b61192680620002036000396000f3fe60806040526004361061004a5760003560e01c8063650025a01461004f578063a001ecdd1461007a578063a8db657c146100a5578063b5f522f7146100ce578063d96a094a14610110575b600080fd5b34801561005b57600080fd5b5061006461012c565b6040516100719190610f3b565b60405180910390f35b34801561008657600080fd5b5061008f610152565b60405161009c9190610f6f565b60405180910390f35b3480156100b157600080fd5b506100cc60048036038101906100c79190610fe7565b610158565b005b3480156100da57600080fd5b506100f560048036038101906100f09190611062565b610717565b6040516101079695949392919061108f565b60405180910390f35b61012a60048036038101906101259190611062565b6107b3565b005b600160009054906101000a900473ffffffffffffffffffffffffffffffffffffffff1681565b60025481565b848460008273ffffffffffffffffffffffffffffffffffffffff166301ffc9a76380ac58cd6040518263ffffffff1660e01b81526004016101999190611164565b602060405180830381865afa1580156101b6573d6000803e3d6000fd5b505050506040513d601f19601f820116820180604052508101906101da91906111b7565b15610260578273ffffffffffffffffffffffffffffffffffffffff16636352211e836040518263ffffffff1660e01b81526004016102189190610f6f565b602060405180830381865afa158015610235573d6000803e3d6000fd5b505050506040513d601f19601f8201168201806040525081019061025991906111f9565b90506102ee565b60008373ffffffffffffffffffffffffffffffffffffffff1662fdd58e33856040518363ffffffff1660e01b815260040161029c929190611226565b602060405180830381865afa1580156102b9573d6000803e3d6000fd5b505050506040513d601f19601f820116820180604052508101906102dd9190611264565b116102e95760006102eb565b335b90505b3373ffffffffffffffffffffffffffffffffffffffff168173ffffffffffffffffffffffffffffffffffffffff161461035c576040517f08c379a000000000000000000000000000000000000000000000000000000000815260040161035390611314565b60405180910390fd5b600073ffffffffffffffffffffffffffffffffffffffff168873ffffffffffffffffffffffffffffffffffffffff16036103cb576040517f08c379a00000000000000000000000000000000000000000000000000000000081526004016103c290611380565b60405180910390fd5b6000861161040e576040517f08c379a000000000000000000000000000000000000000000000000000000000815260040161040590611412565b60405180910390fd5b60008511610451576040517f08c379a0000000000000000000000000000000000000000000000000000000008152600401610448906114a4565b60405180910390fd5b600073ffffffffffffffffffffffffffffffffffffffff1660008089815260200190815260200160002060000160009054906101000a900473ffffffffffffffffffffffffffffffffffffffff1673ffffffffffffffffffffffffffffffffffffffff16036106a2576040518060c001604052803373ffffffffffffffffffffffffffffffffffffffff1681526020018973ffffffffffffffffffffffffffffffffffffffff1681526020018881526020018781526020018681526020018573ffffffffffffffffffffffffffffffffffffffff1681525060008089815260200190815260200160002060008201518160000160006101000a81548173ffffffffffffffffffffffffffffffffffffffff021916908373ffffffffffffffffffffffffffffffffffffffff16021790555060208201518160010160006101000a81548173ffffffffffffffffffffffffffffffffffffffff021916908373ffffffffffffffffffffffffffffffffffffffff16021790555060408201518160020155606082015181600301556080820151816004015560a08201518160050160006101000a81548173ffffffffffffffffffffffffffffffffffffffff021916908373ffffffffffffffffffffffffffffffffffffffff160217905550905050868873ffffffffffffffffffffffffffffffffffffffff163373ffffffffffffffffffffffffffffffffffffffff167fb0a80b8b411d0e9e934eb0cf479e6afa754b6f201b7d96ed8ec110c64b7bcd3f8a8a8a8a60405161069594939291906114c4565b60405180910390a461070d565b84600080898152602001908152602001600020600401819055503373ffffffffffffffffffffffffffffffffffffffff167f14e35e29e973bd87677f47c5604332bf68e1fd726a9778214bb95fdbe265b33b8887604051610704929190611509565b60405180910390a25b5050505050505050565b60006020528060005260406000206000915090508060000160009054906101000a900473ffffffffffffffffffffffffffffffffffffffff16908060010160009054906101000a900473ffffffffffffffffffffffffffffffffffffffff16908060020154908060030154908060040154908060050160009054906101000a900473ffffffffffffffffffffffffffffffffffffffff16905086565b60008060008381526020019081526020016000209050600073ffffffffffffffffffffffffffffffffffffffff168160000160009054906101000a900473ffffffffffffffffffffffffffffffffffffffff1673ffffffffffffffffffffffffffffffffffffffff160361085c576040517f08c379a00000000000000000000000000000000000000000000000000000000081526004016108539061157e565b60405180910390fd5b600081600401549050600073ffffffffffffffffffffffffffffffffffffffff168260050160009054906101000a900473ffffffffffffffffffffffffffffffffffffffff1673ffffffffffffffffffffffffffffffffffffffff16036109055780341015610900576040517f08c379a00000000000000000000000000000000000000000000000000000000081526004016108f7906115ea565b60405180910390fd5b610a32565b60003414610948576040517f08c379a000000000000000000000000000000000000000000000000000000000815260040161093f90611656565b60405180910390fd5b60008260050160009054906101000a900473ffffffffffffffffffffffffffffffffffffffff1690508073ffffffffffffffffffffffffffffffffffffffff166323b872dd3330856040518463ffffffff1660e01b81526004016109ae93929190611676565b6020604051808303816000875af11580156109cd573d6000803e3d6000fd5b505050506040513d601f19601f820116820180604052508101906109f191906111b7565b610a30576040517f08c379a0000000000000000000000000000000000000000000000000000000008152600401610a27906116f9565b60405180910390fd5b505b600061271060025483610a459190611748565b610a4f91906117b9565b9050610aa98183610a6091906117ea565b8460000160009054906101000a900473ffffffffffffffffffffffffffffffffffffffff1673ffffffffffffffffffffffffffffffffffffffff16610e0d90919063ffffffff16565b610af481600160009054906101000a900473ffffffffffffffffffffffffffffffffffffffff1673ffffffffffffffffffffffffffffffffffffffff16610e0d90919063ffffffff16565b8260010160009054906101000a900473ffffffffffffffffffffffffffffffffffffffff1673ffffffffffffffffffffffffffffffffffffffff166301ffc9a76380ac58cd6040518263ffffffff1660e01b8152600401610b559190611164565b602060405180830381865afa158015610b72573d6000803e3d6000fd5b505050506040513d601f19601f82011682018060405250810190610b9691906111b7565b15610c57578260010160009054906101000a900473ffffffffffffffffffffffffffffffffffffffff1673ffffffffffffffffffffffffffffffffffffffff166342842e0e8460000160009054906101000a900473ffffffffffffffffffffffffffffffffffffffff1633876040518463ffffffff1660e01b8152600401610c2093929190611676565b600060405180830381600087803b158015610c3a57600080fd5b505af1158015610c4e573d6000803e3d6000fd5b50505050610d15565b8260010160009054906101000a900473ffffffffffffffffffffffffffffffffffffffff1673ffffffffffffffffffffffffffffffffffffffff1663f242432a8460000160009054906101000a900473ffffffffffffffffffffffffffffffffffffffff16338787600301546040518563ffffffff1660e01b8152600401610ce29493929190611855565b600060405180830381600087803b158015610cfc57600080fd5b505af1158015610d10573d6000803e3d6000fd5b505050505b600080858152602001908152602001600020600080820160006101000a81549073ffffffffffffffffffffffffffffffffffffffff02191690556001820160006101000a81549073ffffffffffffffffffffffffffffffffffffffff02191690556002820160009055600382016000905560048201600090556005820160006101000a81549073ffffffffffffffffffffffffffffffffffffffff021916905550503373ffffffffffffffffffffffffffffffffffffffff167feaa0b3bd2d2b8f1ec500812be411e759ca63e36ab996d88f59d3076f634f095a8584604051610dff929190611509565b60405180910390a250505050565b80471015610e5257306040517fcd786059000000000000000000000000000000000000000000000000000000008152600401610e499190610f3b565b60405180910390fd5b60008273ffffffffffffffffffffffffffffffffffffffff1682604051610e78906118db565b60006040518083038185875af1925050503d8060008114610eb5576040519150601f19603f3d011682016040523d82523d6000602084013e610eba565b606091505b5050905080610ef5576040517f1425ea4200000000000000000000000000000000000000000000000000000000815260040160405180910390fd5b505050565b600073ffffffffffffffffffffffffffffffffffffffff82169050919050565b6000610f2582610efa565b9050919050565b610f3581610f1a565b82525050565b6000602082019050610f506000830184610f2c565b92915050565b6000819050919050565b610f6981610f56565b82525050565b6000602082019050610f846000830184610f60565b92915050565b600080fd5b610f9881610f1a565b8114610fa357600080fd5b50565b600081359050610fb581610f8f565b92915050565b610fc481610f56565b8114610fcf57600080fd5b50565b600081359050610fe181610fbb565b92915050565b600080600080600060a0868803121561100357611002610f8a565b5b600061101188828901610fa6565b955050602061102288828901610fd2565b945050604061103388828901610fd2565b935050606061104488828901610fd2565b925050608061105588828901610fa6565b9150509295509295909350565b60006020828403121561107857611077610f8a565b5b600061108684828501610fd2565b91505092915050565b600060c0820190506110a46000830189610f2c565b6110b16020830188610f2c565b6110be6040830187610f60565b6110cb6060830186610f60565b6110d86080830185610f60565b6110e560a0830184610f2c565b979650505050505050565b6000819050919050565b60007fffffffff0000000000000000000000000000000000000000000000000000000082169050919050565b60008160e01b9050919050565b600061114e611149611144846110f0565b611126565b6110fa565b9050919050565b61115e81611133565b82525050565b60006020820190506111796000830184611155565b92915050565b60008115159050919050565b6111948161117f565b811461119f57600080fd5b50565b6000815190506111b18161118b565b92915050565b6000602082840312156111cd576111cc610f8a565b5b60006111db848285016111a2565b91505092915050565b6000815190506111f381610f8f565b92915050565b60006020828403121561120f5761120e610f8a565b5b600061121d848285016111e4565b91505092915050565b600060408201905061123b6000830185610f2c565b6112486020830184610f60565b9392505050565b60008151905061125e81610fbb565b92915050565b60006020828403121561127a57611279610f8a565b5b60006112888482850161124f565b91505092915050565b600082825260208201905092915050565b7f4f6e6c79204e4654206f776e65722063616e20706572666f726d20746869732060008201527f616374696f6e0000000000000000000000000000000000000000000000000000602082015250565b60006112fe602683611291565b9150611309826112a2565b604082019050919050565b6000602082019050818103600083015261132d816112f1565b9050919050565b7f496e76616c696420636f6e747261637420616464726573730000000000000000600082015250565b600061136a601883611291565b915061137582611334565b602082019050919050565b600060208201905081810360008301526113998161135d565b9050919050565b7f5175616e746974792073686f756c642062652067726561746572207468616e2060008201527f7a65726f00000000000000000000000000000000000000000000000000000000602082015250565b60006113fc602483611291565b9150611407826113a0565b604082019050919050565b6000602082019050818103600083015261142b816113ef565b9050919050565b7f50726963652073686f756c642062652067726561746572207468616e207a657260008201527f6f00000000000000000000000000000000000000000000000000000000000000602082015250565b600061148e602183611291565b915061149982611432565b604082019050919050565b600060208201905081810360008301526114bd81611481565b9050919050565b60006080820190506114d96000830187610f60565b6114e66020830186610f60565b6114f36040830185610f60565b6115006060830184610f2c565b95945050505050565b600060408201905061151e6000830185610f60565b61152b6020830184610f60565b9392505050565b7f53616c6520646f6573206e6f7420657869737400000000000000000000000000600082015250565b6000611568601383611291565b915061157382611532565b602082019050919050565b600060208201905081810360008301526115978161155b565b9050919050565b7f496e73756666696369656e74204554482073656e740000000000000000000000600082015250565b60006115d4601583611291565b91506115df8261159e565b602082019050919050565b60006020820190508181036000830152611603816115c7565b9050919050565b7f455448206e6f7420616c6c6f77656420666f7220746869732073616c65000000600082015250565b6000611640601d83611291565b915061164b8261160a565b602082019050919050565b6000602082019050818103600083015261166f81611633565b9050919050565b600060608201905061168b6000830186610f2c565b6116986020830185610f2c565b6116a56040830184610f60565b949350505050565b7f5061796d656e74207472616e73666572206661696c6564000000000000000000600082015250565b60006116e3601783611291565b91506116ee826116ad565b602082019050919050565b60006020820190508181036000830152611712816116d6565b9050919050565b7f4e487b7100000000000000000000000000000000000000000000000000000000600052601160045260246000fd5b600061175382610f56565b915061175e83610f56565b925082820261176c81610f56565b9150828204841483151761178357611782611719565b5b5092915050565b7f4e487b7100000000000000000000000000000000000000000000000000000000600052601260045260246000fd5b60006117c482610f56565b91506117cf83610f56565b9250826117df576117de61178a565b5b828204905092915050565b60006117f582610f56565b915061180083610f56565b925082820390508181111561181857611817611719565b5b92915050565b600082825260208201905092915050565b50565b600061183f60008361181e565b915061184a8261182f565b600082019050919050565b600060a08201905061186a6000830187610f2c565b6118776020830186610f2c565b6118846040830185610f60565b6118916060830184610f60565b81810360808301526118a281611832565b905095945050505050565b600081905092915050565b60006118c56000836118ad565b91506118d08261182f565b600082019050919050565b60006118e6826118b8565b915081905091905056fea264697066735822122002833e9061582f016f867e598680f5af56caa51ce0acc1e7cd0df2138bca0e6a64736f6c63430008140033",
  "devdoc": {
    "errors": {
      "AddressInsufficientBalance(address)": [
        {
          "details": "The ETH balance of the account is not enough to perform the operation."
        }
      ],
      "FailedInnerCall()": [
        {
          "details": "A call to an address target failed. The target may have reverted."
        }
      ]
    },
    "kind": "dev",
    "methods": {},
    "version": 1
  },
  "userdoc": {
    "kind": "user",
    "methods": {},
    "version": 1
  },
  "storageLayout": {
    "storage": [
      {
        "astId": 3332,
        "contract": "contracts/NFTMarketplace.sol:NFTMarketplace",
        "label": "sales",
        "offset": 0,
        "slot": "0",
        "type": "t_mapping(t_uint256,t_struct(Sale)3327_storage)"
      },
      {
        "astId": 3334,
        "contract": "contracts/NFTMarketplace.sol:NFTMarketplace",
        "label": "marketplaceOwner",
        "offset": 0,
        "slot": "1",
        "type": "t_address"
      },
      {
        "astId": 3337,
        "contract": "contracts/NFTMarketplace.sol:NFTMarketplace",
        "label": "feePercentage",
        "offset": 0,
        "slot": "2",
        "type": "t_uint256"
      }
    ],
    "types": {
      "t_address": {
        "encoding": "inplace",
        "label": "address",
        "numberOfBytes": "20"
      },
      "t_mapping(t_uint256,t_struct(Sale)3327_storage)": {
        "encoding": "mapping",
        "key": "t_uint256",
        "label": "mapping(uint256 => struct NFTMarketplace.Sale)",
        "numberOfBytes": "32",
        "value": "t_struct(Sale)3327_storage"
      },
      "t_struct(Sale)3327_storage": {
        "encoding": "inplace",
        "label": "struct NFTMarketplace.Sale",
        "members": [
          {
            "astId": 3316,
            "contract": "contracts/NFTMarketplace.sol:NFTMarketplace",
            "label": "owner",
            "offset": 0,
            "slot": "0",
            "type": "t_address"
          },
          {
            "astId": 3318,
            "contract": "contracts/NFTMarketplace.sol:NFTMarketplace",
            "label": "nftContract",
            "offset": 0,
            "slot": "1",
            "type": "t_address"
          },
          {
            "astId": 3320,
            "contract": "contracts/NFTMarketplace.sol:NFTMarketplace",
            "label": "tokenId",
            "offset": 0,
            "slot": "2",
            "type": "t_uint256"
          },
          {
            "astId": 3322,
            "contract": "contracts/NFTMarketplace.sol:NFTMarketplace",
            "label": "quantity",
            "offset": 0,
            "slot": "3",
            "type": "t_uint256"
          },
          {
            "astId": 3324,
            "contract": "contracts/NFTMarketplace.sol:NFTMarketplace",
            "label": "price",
            "offset": 0,
            "slot": "4",
            "type": "t_uint256"
          },
          {
            "astId": 3326,
            "contract": "contracts/NFTMarketplace.sol:NFTMarketplace",
            "label": "paymentToken",
            "offset": 0,
            "slot": "5",
            "type": "t_address"
          }
        ],
        "numberOfBytes": "192"
      },
      "t_uint256": {
        "encoding": "inplace",
        "label": "uint256",
        "numberOfBytes": "32"
      }
    }
  }
}